{
  "_format": "hh-sol-artifact-1",
  "contractName": "CertificateContract",
  "sourceName": "contracts/CertificateContract.sol",
  "abi": [
    {
      "inputs": [],
      "stateMutability": "nonpayable",
      "type": "constructor"
    },
    {
      "inputs": [
        {
          "internalType": "address",
          "name": "",
          "type": "address"
        }
      ],
      "name": "certificates",
      "outputs": [
        {
          "internalType": "address",
          "name": "recipient",
          "type": "address"
        },
        {
          "internalType": "string",
          "name": "encryptedData",
          "type": "string"
        },
        {
          "internalType": "bytes32",
          "name": "dataHash",
          "type": "bytes32"
        },
        {
          "internalType": "bytes",
          "name": "signature",
          "type": "bytes"
        },
        {
          "internalType": "bool",
          "name": "isIssued",
          "type": "bool"
        },
        {
          "internalType": "bool",
          "name": "isRevoked",
          "type": "bool"
        }
      ],
      "stateMutability": "view",
      "type": "function"
    },
    {
      "inputs": [
        {
          "internalType": "address",
          "name": "recipient",
          "type": "address"
        },
        {
          "internalType": "string",
          "name": "encryptedData",
          "type": "string"
        },
        {
          "internalType": "bytes32",
          "name": "dataHash",
          "type": "bytes32"
        },
        {
          "internalType": "bytes",
          "name": "signature",
          "type": "bytes"
        }
      ],
      "name": "issueCertificate",
      "outputs": [],
      "stateMutability": "nonpayable",
      "type": "function"
    },
    {
      "inputs": [],
      "name": "owner",
      "outputs": [
        {
          "internalType": "address",
          "name": "",
          "type": "address"
        }
      ],
      "stateMutability": "view",
      "type": "function"
    },
    {
      "inputs": [
        {
          "internalType": "address",
          "name": "recipient",
          "type": "address"
        }
      ],
      "name": "revokeCertificate",
      "outputs": [],
      "stateMutability": "nonpayable",
      "type": "function"
    },
    {
      "inputs": [
        {
          "internalType": "address",
          "name": "recipient",
          "type": "address"
        },
        {
          "internalType": "string",
          "name": "encryptedData",
          "type": "string"
        },
        {
          "internalType": "bytes32",
          "name": "dataHash",
          "type": "bytes32"
        },
        {
          "internalType": "bytes",
          "name": "signature",
          "type": "bytes"
        }
      ],
      "name": "updateCertificate",
      "outputs": [],
      "stateMutability": "nonpayable",
      "type": "function"
    },
    {
      "inputs": [
        {
          "internalType": "address",
          "name": "recipient",
          "type": "address"
        }
      ],
      "name": "verifyCertificate",
      "outputs": [
        {
          "internalType": "bool",
          "name": "",
          "type": "bool"
        }
      ],
      "stateMutability": "view",
      "type": "function"
    },
    {
      "inputs": [
        {
          "internalType": "address",
          "name": "studentAddress",
          "type": "address"
        }
      ],
      "name": "viewCertificate",
      "outputs": [
        {
          "internalType": "string",
          "name": "encryptedData",
          "type": "string"
        },
        {
          "internalType": "bytes32",
          "name": "dataHash",
          "type": "bytes32"
        },
        {
          "internalType": "bytes",
          "name": "signature",
          "type": "bytes"
        }
      ],
      "stateMutability": "view",
      "type": "function"
    }
  ],
  "bytecode": "0x608060405234801561001057600080fd5b50336000806101000a81548173ffffffffffffffffffffffffffffffffffffffff021916908373ffffffffffffffffffffffffffffffffffffffff160217905550611e17806100606000396000f3fe608060405234801561001057600080fd5b506004361061007c5760003560e01c80636b9afc901161005b5780636b9afc90146101045780638da5cb5b146101345780638dce674a14610152578063cbe26a2a1461016e5761007c565b806216e526146100815780635f893bfa146100b657806364dbbaa2146100d2575b600080fd5b61009b60048036038101906100969190610ff0565b61018a565b6040516100ad96959493929190611145565b60405180910390f35b6100d060048036038101906100cb9190610ff0565b610310565b005b6100ec60048036038101906100e79190610ff0565b610518565b6040516100fb939291906111b4565b60405180910390f35b61011e60048036038101906101199190610ff0565b61086a565b60405161012b91906111f9565b60405180910390f35b61013c610a5a565b6040516101499190611214565b60405180910390f35b61016c60048036038101906101679190611431565b610a7e565b005b61018860048036038101906101839190611431565b610c4c565b005b60016020528060005260406000206000915090508060000160009054906101000a900473ffffffffffffffffffffffffffffffffffffffff16908060010180546101d3906114ff565b80601f01602080910402602001604051908101604052809291908181526020018280546101ff906114ff565b801561024c5780601f106102215761010080835404028352916020019161024c565b820191906000526020600020905b81548152906001019060200180831161022f57829003601f168201915b505050505090806002015490806003018054610267906114ff565b80601f0160208091040260200160405190810160405280929190818152602001828054610293906114ff565b80156102e05780601f106102b5576101008083540402835291602001916102e0565b820191906000526020600020905b8154815290600101906020018083116102c357829003601f168201915b5050505050908060040160009054906101000a900460ff16908060040160019054906101000a900460ff16905086565b60008054906101000a900473ffffffffffffffffffffffffffffffffffffffff1673ffffffffffffffffffffffffffffffffffffffff163373ffffffffffffffffffffffffffffffffffffffff161461039e576040517f08c379a0000000000000000000000000000000000000000000000000000000008152600401610395906115a2565b60405180910390fd5b60008054906101000a900473ffffffffffffffffffffffffffffffffffffffff1673ffffffffffffffffffffffffffffffffffffffff163373ffffffffffffffffffffffffffffffffffffffff161461042c576040517f08c379a000000000000000000000000000000000000000000000000000000000815260040161042390611634565b60405180910390fd5b600160008273ffffffffffffffffffffffffffffffffffffffff1673ffffffffffffffffffffffffffffffffffffffff16815260200190815260200160002060040160009054906101000a900460ff166104bb576040517f08c379a00000000000000000000000000000000000000000000000000000000081526004016104b2906116c6565b60405180910390fd5b60018060008373ffffffffffffffffffffffffffffffffffffffff1673ffffffffffffffffffffffffffffffffffffffff16815260200190815260200160002060040160016101000a81548160ff02191690831515021790555050565b6060600060608373ffffffffffffffffffffffffffffffffffffffff16600160008673ffffffffffffffffffffffffffffffffffffffff1673ffffffffffffffffffffffffffffffffffffffff16815260200190815260200160002060000160009054906101000a900473ffffffffffffffffffffffffffffffffffffffff1673ffffffffffffffffffffffffffffffffffffffff16146105ee576040517f08c379a00000000000000000000000000000000000000000000000000000000081526004016105e590611758565b60405180910390fd5b600160008573ffffffffffffffffffffffffffffffffffffffff1673ffffffffffffffffffffffffffffffffffffffff16815260200190815260200160002060040160019054906101000a900460ff161561067e576040517f08c379a0000000000000000000000000000000000000000000000000000000008152600401610675906117ea565b60405180910390fd5b600160008573ffffffffffffffffffffffffffffffffffffffff1673ffffffffffffffffffffffffffffffffffffffff168152602001908152602001600020600101600160008673ffffffffffffffffffffffffffffffffffffffff1673ffffffffffffffffffffffffffffffffffffffff16815260200190815260200160002060020154600160008773ffffffffffffffffffffffffffffffffffffffff1673ffffffffffffffffffffffffffffffffffffffff168152602001908152602001600020600301828054610751906114ff565b80601f016020809104026020016040519081016040528092919081815260200182805461077d906114ff565b80156107ca5780601f1061079f576101008083540402835291602001916107ca565b820191906000526020600020905b8154815290600101906020018083116107ad57829003601f168201915b505050505092508080546107dd906114ff565b80601f0160208091040260200160405190810160405280929190818152602001828054610809906114ff565b80156108565780601f1061082b57610100808354040283529160200191610856565b820191906000526020600020905b81548152906001019060200180831161083957829003601f168201915b505050505090509250925092509193909250565b60008073ffffffffffffffffffffffffffffffffffffffff168273ffffffffffffffffffffffffffffffffffffffff16036108da576040517f08c379a00000000000000000000000000000000000000000000000000000000081526004016108d190611856565b60405180910390fd5b8173ffffffffffffffffffffffffffffffffffffffff16600160008473ffffffffffffffffffffffffffffffffffffffff1673ffffffffffffffffffffffffffffffffffffffff16815260200190815260200160002060000160009054906101000a900473ffffffffffffffffffffffffffffffffffffffff1673ffffffffffffffffffffffffffffffffffffffff16146109aa576040517f08c379a00000000000000000000000000000000000000000000000000000000081526004016109a1906118e8565b60405180910390fd5b600160008373ffffffffffffffffffffffffffffffffffffffff1673ffffffffffffffffffffffffffffffffffffffff16815260200190815260200160002060040160009054906101000a900460ff168015610a535750600160008373ffffffffffffffffffffffffffffffffffffffff1673ffffffffffffffffffffffffffffffffffffffff16815260200190815260200160002060040160019054906101000a900460ff16155b9050919050565b60008054906101000a900473ffffffffffffffffffffffffffffffffffffffff1681565b600073ffffffffffffffffffffffffffffffffffffffff168473ffffffffffffffffffffffffffffffffffffffff1603610aed576040517f08c379a0000000000000000000000000000000000000000000000000000000008152600401610ae490611856565b60405180910390fd5b600160008573ffffffffffffffffffffffffffffffffffffffff1673ffffffffffffffffffffffffffffffffffffffff16815260200190815260200160002060040160009054906101000a900460ff168015610b965750600160008573ffffffffffffffffffffffffffffffffffffffff1673ffffffffffffffffffffffffffffffffffffffff16815260200190815260200160002060040160019054906101000a900460ff16155b610bd5576040517f08c379a0000000000000000000000000000000000000000000000000000000008152600401610bcc9061197a565b60405180910390fd5b6000600160008673ffffffffffffffffffffffffffffffffffffffff1673ffffffffffffffffffffffffffffffffffffffff168152602001908152602001600020905083816001019081610c299190611b50565b5082816002018190555081816003019081610c449190611c7d565b505050505050565b60008054906101000a900473ffffffffffffffffffffffffffffffffffffffff1673ffffffffffffffffffffffffffffffffffffffff163373ffffffffffffffffffffffffffffffffffffffff1614610cda576040517f08c379a0000000000000000000000000000000000000000000000000000000008152600401610cd1906115a2565b60405180910390fd5b600073ffffffffffffffffffffffffffffffffffffffff168473ffffffffffffffffffffffffffffffffffffffff1603610d49576040517f08c379a0000000000000000000000000000000000000000000000000000000008152600401610d4090611856565b60405180910390fd5b600160008573ffffffffffffffffffffffffffffffffffffffff1673ffffffffffffffffffffffffffffffffffffffff16815260200190815260200160002060040160009054906101000a900460ff161580610df15750600160008573ffffffffffffffffffffffffffffffffffffffff1673ffffffffffffffffffffffffffffffffffffffff16815260200190815260200160002060040160019054906101000a900460ff165b610e30576040517f08c379a0000000000000000000000000000000000000000000000000000000008152600401610e2790611dc1565b60405180910390fd5b6040518060c001604052808573ffffffffffffffffffffffffffffffffffffffff16815260200184815260200183815260200182815260200160011515815260200160001515815250600160008673ffffffffffffffffffffffffffffffffffffffff1673ffffffffffffffffffffffffffffffffffffffff16815260200190815260200160002060008201518160000160006101000a81548173ffffffffffffffffffffffffffffffffffffffff021916908373ffffffffffffffffffffffffffffffffffffffff1602179055506020820151816001019081610f149190611b50565b50604082015181600201556060820151816003019081610f349190611c7d565b5060808201518160040160006101000a81548160ff02191690831515021790555060a08201518160040160016101000a81548160ff02191690831515021790555090505050505050565b6000604051905090565b600080fd5b600080fd5b600073ffffffffffffffffffffffffffffffffffffffff82169050919050565b6000610fbd82610f92565b9050919050565b610fcd81610fb2565b8114610fd857600080fd5b50565b600081359050610fea81610fc4565b92915050565b60006020828403121561100657611005610f88565b5b600061101484828501610fdb565b91505092915050565b61102681610fb2565b82525050565b600081519050919050565b600082825260208201905092915050565b60005b8381101561106657808201518184015260208101905061104b565b60008484015250505050565b6000601f19601f8301169050919050565b600061108e8261102c565b6110988185611037565b93506110a8818560208601611048565b6110b181611072565b840191505092915050565b6000819050919050565b6110cf816110bc565b82525050565b600081519050919050565b600082825260208201905092915050565b60006110fc826110d5565b61110681856110e0565b9350611116818560208601611048565b61111f81611072565b840191505092915050565b60008115159050919050565b61113f8161112a565b82525050565b600060c08201905061115a600083018961101d565b818103602083015261116c8188611083565b905061117b60408301876110c6565b818103606083015261118d81866110f1565b905061119c6080830185611136565b6111a960a0830184611136565b979650505050505050565b600060608201905081810360008301526111ce8186611083565b90506111dd60208301856110c6565b81810360408301526111ef81846110f1565b9050949350505050565b600060208201905061120e6000830184611136565b92915050565b6000602082019050611229600083018461101d565b92915050565b600080fd5b600080fd5b7f4e487b7100000000000000000000000000000000000000000000000000000000600052604160045260246000fd5b61127182611072565b810181811067ffffffffffffffff821117156112905761128f611239565b5b80604052505050565b60006112a3610f7e565b90506112af8282611268565b919050565b600067ffffffffffffffff8211156112cf576112ce611239565b5b6112d882611072565b9050602081019050919050565b82818337600083830152505050565b6000611307611302846112b4565b611299565b90508281526020810184848401111561132357611322611234565b5b61132e8482856112e5565b509392505050565b600082601f83011261134b5761134a61122f565b5b813561135b8482602086016112f4565b91505092915050565b61136d816110bc565b811461137857600080fd5b50565b60008135905061138a81611364565b92915050565b600067ffffffffffffffff8211156113ab576113aa611239565b5b6113b482611072565b9050602081019050919050565b60006113d46113cf84611390565b611299565b9050828152602081018484840111156113f0576113ef611234565b5b6113fb8482856112e5565b509392505050565b600082601f8301126114185761141761122f565b5b81356114288482602086016113c1565b91505092915050565b6000806000806080858703121561144b5761144a610f88565b5b600061145987828801610fdb565b945050602085013567ffffffffffffffff81111561147a57611479610f8d565b5b61148687828801611336565b93505060406114978782880161137b565b925050606085013567ffffffffffffffff8111156114b8576114b7610f8d565b5b6114c487828801611403565b91505092959194509250565b7f4e487b7100000000000000000000000000000000000000000000000000000000600052602260045260246000fd5b6000600282049050600182168061151757607f821691505b60208210810361152a576115296114d0565b5b50919050565b7f4f6e6c792074686520556e69766572736974792063616e2063616c6c2074686960008201527f732066756e6374696f6e00000000000000000000000000000000000000000000602082015250565b600061158c602a83611037565b915061159782611530565b604082019050919050565b600060208201905081810360008301526115bb8161157f565b9050919050565b7f4f6e6c792074686520556e69766572736974792063616e207265766f6b65206360008201527f6572746966696361746573000000000000000000000000000000000000000000602082015250565b600061161e602b83611037565b9150611629826115c2565b604082019050919050565b6000602082019050818103600083015261164d81611611565b9050919050565b7f4365727469666963617465206e6f7420697373756564206f7220616c7265616460008201527f79207265766f6b65640000000000000000000000000000000000000000000000602082015250565b60006116b0602983611037565b91506116bb82611654565b604082019050919050565b600060208201905081810360008301526116df816116a3565b9050919050565b7f4e6f20636572746966696361746520666f756e6420666f72207468697320737460008201527f7564656e74000000000000000000000000000000000000000000000000000000602082015250565b6000611742602583611037565b915061174d826116e6565b604082019050919050565b6000602082019050818103600083015261177181611735565b9050919050565b7f5468697320636572746966696361746520686173206265656e207265766f6b6560008201527f6400000000000000000000000000000000000000000000000000000000000000602082015250565b60006117d4602183611037565b91506117df82611778565b604082019050919050565b60006020820190508181036000830152611803816117c7565b9050919050565b7f496e76616c696420726563697069656e74206164647265737300000000000000600082015250565b6000611840601983611037565b915061184b8261180a565b602082019050919050565b6000602082019050818103600083015261186f81611833565b9050919050565b7f4e6f20636572746966696361746520666f756e6420666f72207468697320726560008201527f63697069656e7400000000000000000000000000000000000000000000000000602082015250565b60006118d2602783611037565b91506118dd82611876565b604082019050919050565b60006020820190508181036000830152611901816118c5565b9050919050565b7f4365727469666963617465206e6f7420697373756564206f7220616c7265616460008201527f79207265766f6b656420666f72207468697320726563697069656e7400000000602082015250565b6000611964603c83611037565b915061196f82611908565b604082019050919050565b6000602082019050818103600083015261199381611957565b9050919050565b60008190508160005260206000209050919050565b60006020601f8301049050919050565b600082821b905092915050565b6000600883026119fc7fffffffffffffffffffffffffffffffffffffffffffffffffffffffffffffffff826119bf565b611a0686836119bf565b95508019841693508086168417925050509392505050565b6000819050919050565b6000819050919050565b6000611a4d611a48611a4384611a1e565b611a28565b611a1e565b9050919050565b6000819050919050565b611a6783611a32565b611a7b611a7382611a54565b8484546119cc565b825550505050565b600090565b611a90611a83565b611a9b818484611a5e565b505050565b5b81811015611abf57611ab4600082611a88565b600181019050611aa1565b5050565b601f821115611b0457611ad58161199a565b611ade846119af565b81016020851015611aed578190505b611b01611af9856119af565b830182611aa0565b50505b505050565b600082821c905092915050565b6000611b2760001984600802611b09565b1980831691505092915050565b6000611b408383611b16565b9150826002028217905092915050565b611b598261102c565b67ffffffffffffffff811115611b7257611b71611239565b5b611b7c82546114ff565b611b87828285611ac3565b600060209050601f831160018114611bba5760008415611ba8578287015190505b611bb28582611b34565b865550611c1a565b601f198416611bc88661199a565b60005b82811015611bf057848901518255600182019150602085019450602081019050611bcb565b86831015611c0d5784890151611c09601f891682611b16565b8355505b6001600288020188555050505b505050505050565b60008190508160005260206000209050919050565b601f821115611c7857611c4981611c22565b611c52846119af565b81016020851015611c61578190505b611c75611c6d856119af565b830182611aa0565b50505b505050565b611c86826110d5565b67ffffffffffffffff811115611c9f57611c9e611239565b5b611ca982546114ff565b611cb4828285611c37565b600060209050601f831160018114611ce75760008415611cd5578287015190505b611cdf8582611b34565b865550611d47565b601f198416611cf586611c22565b60005b82811015611d1d57848901518255600182019150602085019450602081019050611cf8565b86831015611d3a5784890151611d36601f891682611b16565b8355505b6001600288020188555050505b505050505050565b7f436572746966696361746520616c726561647920697373756564206f7220726560008201527f766f6b656420666f72207468697320726563697069656e740000000000000000602082015250565b6000611dab603883611037565b9150611db682611d4f565b604082019050919050565b60006020820190508181036000830152611dda81611d9e565b905091905056fea2646970667358221220fffd9b7c8ef8b8b0ce741bbe2ab5483b7cb7e590f7f7889b1e5cfcaec464749264736f6c63430008140033",
  "linkReferences": {},
  "deployedLinkReferences": {}
}